{
    "contractName": "Item",
    "abi": [
        {
            "inputs": [
                {
                    "internalType": "contract ItemManager",
                    "name": "_parentContract",
                    "type": "address"
                },
                {
                    "internalType": "uint256",
                    "name": "_priceInWei",
                    "type": "uint256"
                },
                {
                    "internalType": "uint256",
                    "name": "_index",
                    "type": "uint256"
                }
            ],
            "stateMutability": "nonpayable",
            "type": "constructor"
        },
        {
            "stateMutability": "nonpayable",
            "type": "fallback"
        },
        {
            "inputs": [],
            "name": "Itempriceinwei",
            "outputs": [
                {
                    "internalType": "uint256",
                    "name": "",
                    "type": "uint256"
                }
            ],
            "stateMutability": "view",
            "type": "function"
        },
        {
            "inputs": [],
            "name": "index",
            "outputs": [
                {
                    "internalType": "uint256",
                    "name": "",
                    "type": "uint256"
                }
            ],
            "stateMutability": "view",
            "type": "function"
        },
        {
            "inputs": [],
            "name": "pricePaid",
            "outputs": [
                {
                    "internalType": "uint256",
                    "name": "",
                    "type": "uint256"
                }
            ],
            "stateMutability": "view",
            "type": "function"
        },
        {
            "stateMutability": "payable",
            "type": "receive"
        }
    ],
    "bytecode": "608060405234801561001057600080fd5b506040516103b43803806103b483398101604081905261002f9161005d565b600091909155600155600380546001600160a01b0319166001600160a01b039290921691909117905561009e565b600080600060608486031215610071578283fd5b83516001600160a01b0381168114610087578384fd5b602085015160409095015190969495509392505050565b610307806100ad6000396000f3fe6080604052600436106100385760003560e01c80632986c0e51461016a57806389794d0014610195578063ce3a181e146101aa5761015e565b3661015e57600254156100665760405162461bcd60e51b815260040161005d90610241565b60405180910390fd5b34600054146100875760405162461bcd60e51b815260040161005d9061020a565b346002600082825461009991906102ad565b90915550506003546001546040516000926001600160a01b03169134916100c391906024016102a4565b60408051601f198184030181529181526020820180516001600160e01b031663800fb83f60e01b179052516100f891906101d1565b60006040518083038185875af1925050503d8060008114610135576040519150601f19603f3d011682016040523d82523d6000602084013e61013a565b606091505b505090508061015b5760405162461bcd60e51b815260040161005d9061026f565b50005b34801561015b57600080fd5b34801561017657600080fd5b5061017f6101bf565b60405161018c91906102a4565b60405180910390f35b3480156101a157600080fd5b5061017f6101c5565b3480156101b657600080fd5b5061017f6101cb565b60015481565b60025481565b60005481565b60008251815b818110156101f157602081860181015185830152016101d7565b818111156101ff5782828501525b509190910192915050565b6020808252601a908201527f4f6d6c792066756c6c207061796d656e747320616c6c6f776564000000000000604082015260600190565b6020808252601490820152734974656d206973207061696420616c726561647960601b604082015260600190565b6020808252818101527f5472616e73616374696f6e206661696c65642c43616e63656c6c696e672e2e2e604082015260600190565b90815260200190565b600082198211156102cc57634e487b7160e01b81526011600452602481fd5b50019056fea264697066735822122033b43bf3f7288ca69edaa8cf1cc7f48addca0b5478d198189ddf3de0a314c9f264736f6c63430008000033",
    "sourcePath": "d:/SupplyChain/contracts/Item.sol",
    "compiler": {
        "name": "solc",
        "version": "0.8.0+commit.c7dfd78e"
    },
    "functionHashes": {
        "Itempriceinwei()": "ce3a181e",
        "index()": "2986c0e5",
        "pricePaid()": "89794d00"
    },
    "gasEstimates": {
        "creation": {
            "codeDepositCost": "155000",
            "executionCost": "infinite",
            "totalCost": "infinite"
        },
        "external": {
            "": "156",
            "Itempriceinwei()": "1050",
            "index()": "1006",
            "pricePaid()": "1028"
        }
    }
}