{
    "contractName": "ItemManager",
    "abi": [
        {
            "anonymous": false,
            "inputs": [
                {
                    "indexed": false,
                    "internalType": "uint256",
                    "name": "Itemindex",
                    "type": "uint256"
                },
                {
                    "indexed": false,
                    "internalType": "uint256",
                    "name": "_step",
                    "type": "uint256"
                },
                {
                    "indexed": false,
                    "internalType": "address",
                    "name": "_itemAddress",
                    "type": "address"
                }
            ],
            "name": "SupplyChainStep",
            "type": "event"
        },
        {
            "inputs": [
                {
                    "internalType": "string",
                    "name": "_Identifier",
                    "type": "string"
                },
                {
                    "internalType": "uint256",
                    "name": "_itemprice",
                    "type": "uint256"
                }
            ],
            "name": "CreateItem",
            "outputs": [],
            "stateMutability": "nonpayable",
            "type": "function"
        },
        {
            "inputs": [],
            "name": "isOwner",
            "outputs": [
                {
                    "internalType": "bool",
                    "name": "",
                    "type": "bool"
                }
            ],
            "stateMutability": "view",
            "type": "function"
        },
        {
            "inputs": [
                {
                    "internalType": "uint256",
                    "name": "",
                    "type": "uint256"
                }
            ],
            "name": "items",
            "outputs": [
                {
                    "internalType": "contract Item",
                    "name": "_item",
                    "type": "address"
                },
                {
                    "internalType": "string",
                    "name": "_Identifier",
                    "type": "string"
                },
                {
                    "internalType": "uint256",
                    "name": "_itemprice",
                    "type": "uint256"
                },
                {
                    "internalType": "enum ItemManager.SupplyChainState",
                    "name": "state",
                    "type": "uint8"
                }
            ],
            "stateMutability": "view",
            "type": "function"
        },
        {
            "inputs": [
                {
                    "internalType": "uint256",
                    "name": "_Itemindex",
                    "type": "uint256"
                }
            ],
            "name": "triggerDelivery",
            "outputs": [],
            "stateMutability": "nonpayable",
            "type": "function"
        },
        {
            "inputs": [
                {
                    "internalType": "uint256",
                    "name": "_Itemindex",
                    "type": "uint256"
                }
            ],
            "name": "triggerPayment",
            "outputs": [],
            "stateMutability": "payable",
            "type": "function"
        }
    ],
    "bytecode": "608060405234801561001057600080fd5b50600080546001600160a01b03191633179055610c24806100326000396000f3fe60806040526004361061004a5760003560e01c8063800fb83f1461004f5780638f32d59b14610064578063bfb231d21461008f578063cd31831e146100bf578063f984ba69146100df575b600080fd5b61006261005d36600461064c565b6100ff565b005b34801561007057600080fd5b50610079610236565b6040516100869190610686565b60405180910390f35b34801561009b57600080fd5b506100af6100aa36600461064c565b610247565b60405161008694939291906106b2565b3480156100cb57600080fd5b506100626100da36600461064c565b610307565b3480156100eb57600080fd5b506100626100fa3660046105a5565b6103a4565b60008181526001602052604090206002015434146101385760405162461bcd60e51b815260040161012f90610763565b60405180910390fd5b60008181526001602052604081206003015460ff16600281111561016c57634e487b7160e01b600052602160045260246000fd5b146101895760405162461bcd60e51b815260040161012f9061072c565b6000818152600160208190526040909120600301805460ff191682805b02179055506000818152600160205260409020600301547fa4035636e99f06b7651a604c1019fa4e8779fe68ef27eeb74dff2de348f6199b90829060ff16600281111561020357634e487b7160e01b600052602160045260246000fd5b6000848152600160205260409081902054905161022b9392916001600160a01b0316906107c8565b60405180910390a150565b6000546001600160a01b0316331490565b6001602081905260009182526040909120805491810180546001600160a01b0390931692610274906107e7565b80601f01602080910402602001604051908101604052809291908181526020018280546102a0906107e7565b80156102ed5780601f106102c2576101008083540402835291602001916102ed565b820191906000526020600020905b8154815290600101906020018083116102d057829003601f168201915b50505050600283015460039093015491929160ff16905084565b61030f610236565b61032b5760405162461bcd60e51b815260040161012f9061079a565b600160008281526001602052604090206003015460ff16600281111561036157634e487b7160e01b600052602160045260246000fd5b1461037e5760405162461bcd60e51b815260040161012f9061072c565b6000818152600160208190526040909120600301805460029260ff1990911690836101a6565b6103ac610236565b6103c85760405162461bcd60e51b815260040161012f9061079a565b600030826002546040516103db906104ff565b6103e793929190610691565b604051809103906000f080158015610403573d6000803e3d6000fd5b5060028054600090815260016020818152604080842080546001600160a01b0319166001600160a01b0388161790559354835292909120865193945061044e9391019186019061050c565b50600280546000908152600160205260408082208301859055825482528082206003908101805460ff19169055835480845291909220909101547fa4035636e99f06b7651a604c1019fa4e8779fe68ef27eeb74dff2de348f6199b9260ff909116908111156104cd57634e487b7160e01b600052602160045260246000fd5b836040516104dd939291906107c8565b60405180910390a1600280549060006104f583610822565b9190505550505050565b61038f8061086083390190565b828054610518906107e7565b90600052602060002090601f01602090048101928261053a5760008555610580565b82601f1061055357805160ff1916838001178555610580565b82800160010185558215610580579182015b82811115610580578251825591602001919060010190610565565b5061058c929150610590565b5090565b5b8082111561058c5760008155600101610591565b600080604083850312156105b7578182fd5b823567ffffffffffffffff808211156105ce578384fd5b818501915085601f8301126105e1578384fd5b81356020828211156105f5576105f5610849565b604051601f8301601f191681018201848111828210171561061857610618610849565b604052828152848301820189101561062e578687fd5b82828601838301379182018101959095529694909301359450505050565b60006020828403121561065d578081fd5b5035919050565b6003811061068257634e487b7160e01b600052602160045260246000fd5b9052565b901515815260200190565b6001600160a01b039390931683526020830191909152604082015260600190565b600060018060a01b038616825260206080818401528551806080850152825b818110156106ed5787810183015185820160a0015282016106d1565b818111156106fe578360a083870101525b5060408401869052601f01601f1916830160a001915061072390506060830184610664565b95945050505050565b6020808252601c908201527f4974656d206973206675727468657220696e2074686520636861696e00000000604082015260600190565b6020808252601b908201527f4f6e6c792066756c6c207061796d656e74732061636365707465640000000000604082015260600190565b6020808252601490820152732cb7ba9030b932903737ba1030b63637bbb2b21760611b604082015260600190565b92835260208301919091526001600160a01b0316604082015260600190565b6002810460018216806107fb57607f821691505b6020821081141561081c57634e487b7160e01b600052602260045260246000fd5b50919050565b600060001982141561084257634e487b7160e01b81526011600452602481fd5b5060010190565b634e487b7160e01b600052604160045260246000fdfe608060405234801561001057600080fd5b5060405161038f38038061038f83398101604081905261002f91610038565b50610079915050565b60008060006060848603121561004c578283fd5b83516001600160a01b0381168114610062578384fd5b602085015160409095015190969495509392505050565b610307806100886000396000f3fe6080604052600436106100385760003560e01c80632986c0e51461016a57806389794d0014610195578063ce3a181e146101aa5761015e565b3661015e57600254156100665760405162461bcd60e51b815260040161005d90610241565b60405180910390fd5b34600054146100875760405162461bcd60e51b815260040161005d9061020a565b346002600082825461009991906102ad565b90915550506003546001546040516000926001600160a01b03169134916100c391906024016102a4565b60408051601f198184030181529181526020820180516001600160e01b031663800fb83f60e01b179052516100f891906101d1565b60006040518083038185875af1925050503d8060008114610135576040519150601f19603f3d011682016040523d82523d6000602084013e61013a565b606091505b505090508061015b5760405162461bcd60e51b815260040161005d9061026f565b50005b34801561015b57600080fd5b34801561017657600080fd5b5061017f6101bf565b60405161018c91906102a4565b60405180910390f35b3480156101a157600080fd5b5061017f6101c5565b3480156101b657600080fd5b5061017f6101cb565b60015481565b60025481565b60005481565b60008251815b818110156101f157602081860181015185830152016101d7565b818111156101ff5782828501525b509190910192915050565b6020808252601a908201527f4f6d6c792066756c6c207061796d656e747320616c6c6f776564000000000000604082015260600190565b6020808252601490820152734974656d206973207061696420616c726561647960601b604082015260600190565b6020808252818101527f5472616e73616374696f6e206661696c65642c43616e63656c6c696e672e2e2e604082015260600190565b90815260200190565b600082198211156102cc57634e487b7160e01b81526011600452602481fd5b50019056fea264697066735822122085ddafd49057887fbb81cbb5d0158f505512879aa2183fcc91925ae02ae8932964736f6c63430008000033a2646970667358221220d568d8d218fa7c36994eead9b85490e4225431a8f357ac8c0d132bfcac3d930664736f6c63430008000033",
    "sourcePath": "d:/SupplyChain/contracts/ItemManager.sol",
    "compiler": {
        "name": "solc",
        "version": "0.8.0+commit.c7dfd78e"
    },
    "functionHashes": {
        "CreateItem(string,uint256)": "f984ba69",
        "isOwner()": "8f32d59b",
        "items(uint256)": "bfb231d2",
        "triggerDelivery(uint256)": "cd31831e",
        "triggerPayment(uint256)": "800fb83f"
    },
    "gasEstimates": {
        "creation": {
            "codeDepositCost": "621600",
            "executionCost": "21492",
            "totalCost": "643092"
        },
        "external": {
            "CreateItem(string,uint256)": "infinite",
            "isOwner()": "1057",
            "items(uint256)": "infinite",
            "triggerDelivery(uint256)": "26471",
            "triggerPayment(uint256)": "26382"
        }
    }
}