{
    "contractName": "Ownable",
    "abi": [
        {
            "inputs": [],
            "stateMutability": "nonpayable",
            "type": "constructor"
        },
        {
            "inputs": [],
            "name": "isOwner",
            "outputs": [
                {
                    "internalType": "bool",
                    "name": "",
                    "type": "bool"
                }
            ],
            "stateMutability": "view",
            "type": "function"
        }
    ],
    "bytecode": "6080604052348015600f57600080fd5b50600080546001600160a01b031916331790556085806100306000396000f3fe6080604052348015600f57600080fd5b506004361060285760003560e01c80638f32d59b14602d575b600080fd5b6000546001600160a01b03163314604051901515815260200160405180910390f3fea2646970667358221220cf85bb5dc55e794e5b3162212ee194b781663cccedabcc2645300a982a5078d164736f6c634300080a0033",
    "sourcePath": "d:/SupplyChain/contracts/test.sol",
    "compiler": {
        "name": "solc",
        "version": "0.8.10+commit.fc410830"
    },
    "functionHashes": {
        "isOwner()": "8f32d59b"
    },
    "gasEstimates": {
        "creation": {
            "codeDepositCost": "26600",
            "executionCost": "24316",
            "totalCost": "50916"
        },
        "external": {
            "isOwner()": "2275"
        }
    }
}