{
  "contractName": "Item",
  "abi": [
    {
      "inputs": [
        {
          "internalType": "contract ItemManager",
          "name": "_parentContract",
          "type": "address"
        },
        {
          "internalType": "uint256",
          "name": "_priceInWei",
          "type": "uint256"
        },
        {
          "internalType": "uint256",
          "name": "_index",
          "type": "uint256"
        }
      ],
      "stateMutability": "nonpayable",
      "type": "constructor"
    },
    {
      "stateMutability": "nonpayable",
      "type": "fallback"
    },
    {
      "inputs": [],
      "name": "Itempriceinwei",
      "outputs": [
        {
          "internalType": "uint256",
          "name": "",
          "type": "uint256"
        }
      ],
      "stateMutability": "view",
      "type": "function"
    },
    {
      "inputs": [],
      "name": "index",
      "outputs": [
        {
          "internalType": "uint256",
          "name": "",
          "type": "uint256"
        }
      ],
      "stateMutability": "view",
      "type": "function"
    },
    {
      "inputs": [],
      "name": "pricePaid",
      "outputs": [
        {
          "internalType": "uint256",
          "name": "",
          "type": "uint256"
        }
      ],
      "stateMutability": "view",
      "type": "function"
    },
    {
      "stateMutability": "payable",
      "type": "receive"
    }
  ],
  "bytecode": "0x608060405234801561001057600080fd5b5060405161072e38038061072e83398181016040528101906100329190610114565b60005491506001549050600360009054906101000a900473ffffffffffffffffffffffffffffffffffffffff169250505050610167565b600080fd5b600073ffffffffffffffffffffffffffffffffffffffff82169050919050565b60006100998261006e565b9050919050565b60006100ab8261008e565b9050919050565b6100bb816100a0565b81146100c657600080fd5b50565b6000815190506100d8816100b2565b92915050565b6000819050919050565b6100f1816100de565b81146100fc57600080fd5b50565b60008151905061010e816100e8565b92915050565b60008060006060848603121561012d5761012c610069565b5b600061013b868287016100c9565b935050602061014c868287016100ff565b925050604061015d868287016100ff565b9150509250925092565b6105b8806101766000396000f3fe6080604052600436106100385760003560e01c80632986c0e51461025057806389794d001461027b578063ce3a181e146102a657610241565b3661024157600060025414610082576040517f08c379a000000000000000000000000000000000000000000000000000000000815260040161007990610340565b60405180910390fd5b34600054146100c6576040517f08c379a00000000000000000000000000000000000000000000000000000000081526004016100bd906103ac565b60405180910390fd5b34600260008282546100d89190610405565b925050819055506000600360009054906101000a900473ffffffffffffffffffffffffffffffffffffffff1673ffffffffffffffffffffffffffffffffffffffff163460015460405160240161012e919061046a565b6040516020818303038152906040527f800fb83f000000000000000000000000000000000000000000000000000000007bffffffffffffffffffffffffffffffffffffffffffffffffffffffff19166020820180517bffffffffffffffffffffffffffffffffffffffffffffffffffffffff83818316178352505050506040516101b891906104ff565b60006040518083038185875af1925050503d80600081146101f5576040519150601f19603f3d011682016040523d82523d6000602084013e6101fa565b606091505b505090508061023e576040517f08c379a000000000000000000000000000000000000000000000000000000000815260040161023590610562565b60405180910390fd5b50005b34801561024d57600080fd5b50005b34801561025c57600080fd5b506102656102d1565b604051610272919061046a565b60405180910390f35b34801561028757600080fd5b506102906102d7565b60405161029d919061046a565b60405180910390f35b3480156102b257600080fd5b506102bb6102dd565b6040516102c8919061046a565b60405180910390f35b60015481565b60025481565b60005481565b600082825260208201905092915050565b7f4974656d206973207061696420616c7265616479000000000000000000000000600082015250565b600061032a6014836102e3565b9150610335826102f4565b602082019050919050565b600060208201905081810360008301526103598161031d565b9050919050565b7f4f6d6c792066756c6c207061796d656e747320616c6c6f776564000000000000600082015250565b6000610396601a836102e3565b91506103a182610360565b602082019050919050565b600060208201905081810360008301526103c581610389565b9050919050565b6000819050919050565b7f4e487b7100000000000000000000000000000000000000000000000000000000600052601160045260246000fd5b6000610410826103cc565b915061041b836103cc565b9250827fffffffffffffffffffffffffffffffffffffffffffffffffffffffffffffffff038211156104505761044f6103d6565b5b828201905092915050565b610464816103cc565b82525050565b600060208201905061047f600083018461045b565b92915050565b600081519050919050565b600081905092915050565b60005b838110156104b957808201518184015260208101905061049e565b838111156104c8576000848401525b50505050565b60006104d982610485565b6104e38185610490565b93506104f381856020860161049b565b80840191505092915050565b600061050b82846104ce565b915081905092915050565b7f5472616e73616374696f6e206661696c65642c43616e63656c6c696e672e2e2e600082015250565b600061054c6020836102e3565b915061055782610516565b602082019050919050565b6000602082019050818103600083015261057b8161053f565b905091905056fea2646970667358221220fdb654b93dccaff0b3addb05f4058e8c8f33d6569845b199d5f0bb07e823b12a64736f6c634300080a0033",
  "immutableReferences": {},
  "source": "pragma solidity >=0.8.0;\r\n\r\nimport \"./ItemManager.sol\";\r\n\r\ncontract Item{\r\n    \r\n    uint public Itempriceinwei;\r\n    uint public index;\r\n    uint public pricePaid;\r\n    \r\n    \r\n    ItemManager parentContract;\r\n    \r\n    constructor(ItemManager _parentContract ,uint _priceInWei, uint _index )  {\r\n        \r\n        _priceInWei=Itempriceinwei;\r\n        _index=index;\r\n        _parentContract=parentContract;\r\n        \r\n       \r\n        \r\n        \r\n        \r\n    }\r\n    \r\n    \r\n    receive() external payable{\r\n        require(pricePaid==0,\"Item is paid already\");\r\n        require(Itempriceinwei==msg.value,\"Omly full payments allowed\");\r\n        pricePaid+=msg.value;\r\n       (bool success,)= address(parentContract).call{value:msg.value}(abi.encodeWithSignature(\"triggerPayment(uint256)\",index));\r\n       require(success,\"Transaction failed,Cancelling...\");\r\n        \r\n    }\r\n    \r\n     fallback() external{}\r\n    \r\n    \r\n    \r\n    \r\n}",
  "sourcePath": "D:\\SupplyChain\\contracts\\Item.sol",
  "compiler": {
    "name": "solc",
    "version": "0.8.10+commit.fc410830.Emscripten.clang"
  },
  "schemaVersion": "3.4.3",
  "updatedAt": "2021-11-18T15:39:46.173Z",
  "devdoc": {
    "kind": "dev",
    "methods": {},
    "version": 1
  },
  "userdoc": {
    "kind": "user",
    "methods": {},
    "version": 1
  }
}