{
  "contractName": "ItemManager",
  "abi": [
    {
      "anonymous": false,
      "inputs": [
        {
          "indexed": false,
          "internalType": "uint256",
          "name": "Itemindex",
          "type": "uint256"
        },
        {
          "indexed": false,
          "internalType": "uint256",
          "name": "_step",
          "type": "uint256"
        },
        {
          "indexed": false,
          "internalType": "address",
          "name": "_itemAddress",
          "type": "address"
        }
      ],
      "name": "SupplyChainStep",
      "type": "event"
    },
    {
      "inputs": [],
      "name": "isOwner",
      "outputs": [
        {
          "internalType": "bool",
          "name": "",
          "type": "bool"
        }
      ],
      "stateMutability": "view",
      "type": "function",
      "constant": true
    },
    {
      "inputs": [
        {
          "internalType": "uint256",
          "name": "",
          "type": "uint256"
        }
      ],
      "name": "items",
      "outputs": [
        {
          "internalType": "contract Item",
          "name": "_item",
          "type": "address"
        },
        {
          "internalType": "string",
          "name": "_Identifier",
          "type": "string"
        },
        {
          "internalType": "uint256",
          "name": "_itemprice",
          "type": "uint256"
        },
        {
          "internalType": "enum ItemManager.SupplyChainState",
          "name": "state",
          "type": "uint8"
        }
      ],
      "stateMutability": "view",
      "type": "function",
      "constant": true
    },
    {
      "inputs": [
        {
          "internalType": "string",
          "name": "_Identifier",
          "type": "string"
        },
        {
          "internalType": "uint256",
          "name": "_itemprice",
          "type": "uint256"
        }
      ],
      "name": "CreateItem",
      "outputs": [],
      "stateMutability": "nonpayable",
      "type": "function"
    },
    {
      "inputs": [
        {
          "internalType": "uint256",
          "name": "Itemindex",
          "type": "uint256"
        }
      ],
      "name": "triggerPayment",
      "outputs": [],
      "stateMutability": "payable",
      "type": "function",
      "payable": true
    },
    {
      "inputs": [
        {
          "internalType": "uint256",
          "name": "Itemindex",
          "type": "uint256"
        }
      ],
      "name": "triggerDelivery",
      "outputs": [],
      "stateMutability": "nonpayable",
      "type": "function"
    }
  ],
  "bytecode": "0x608060405234801561001057600080fd5b50336000806101000a81548173ffffffffffffffffffffffffffffffffffffffff021916908373ffffffffffffffffffffffffffffffffffffffff1602179055506117fe806100606000396000f3fe608060405260043610620000505760003560e01c8063800fb83f14620000555780638f32d59b1462000075578063bfb231d214620000a5578063cd31831e14620000ec578063f984ba69146200011a575b600080fd5b6200007360048036038101906200006d919062000953565b62000148565b005b3480156200008257600080fd5b506200008d62000325565b6040516200009c9190620009a2565b60405180910390f35b348015620000b257600080fd5b50620000d16004803603810190620000cb919062000953565b6200037c565b604051620000e3949392919062000b7f565b60405180910390f35b348015620000f957600080fd5b5062000118600480360381019062000112919062000953565b62000469565b005b3480156200012757600080fd5b5062000146600480360381019062000140919062000d24565b62000638565b005b34600160008381526020019081526020016000206002015414620001a3576040517f08c379a00000000000000000000000000000000000000000000000000000000081526004016200019a9062000dda565b60405180910390fd5b60006002811115620001ba57620001b962000aff565b5b6001600083815260200190815260200160002060030160009054906101000a900460ff166002811115620001f357620001f262000aff565b5b1462000236576040517f08c379a00000000000000000000000000000000000000000000000000000000081526004016200022d9062000e4c565b60405180910390fd5b600180600083815260200190815260200160002060030160006101000a81548160ff0219169083600281111562000272576200027162000aff565b5b02179055507fa4035636e99f06b7651a604c1019fa4e8779fe68ef27eeb74dff2de348f6199b816001600084815260200190815260200160002060030160009054906101000a900460ff166002811115620002d257620002d162000aff565b5b6001600085815260200190815260200160002060000160009054906101000a900473ffffffffffffffffffffffffffffffffffffffff166040516200031a9392919062000e93565b60405180910390a150565b60008060009054906101000a900473ffffffffffffffffffffffffffffffffffffffff1673ffffffffffffffffffffffffffffffffffffffff163373ffffffffffffffffffffffffffffffffffffffff1614905090565b60016020528060005260406000206000915090508060000160009054906101000a900473ffffffffffffffffffffffffffffffffffffffff1690806001018054620003c79062000eff565b80601f0160208091040260200160405190810160405280929190818152602001828054620003f59062000eff565b8015620004465780601f106200041a5761010080835404028352916020019162000446565b820191906000526020600020905b8154815290600101906020018083116200042857829003601f168201915b5050505050908060020154908060030160009054906101000a900460ff16905084565b6200047362000325565b620004b5576040517f08c379a0000000000000000000000000000000000000000000000000000000008152600401620004ac9062000f85565b60405180910390fd5b60016002811115620004cc57620004cb62000aff565b5b6001600083815260200190815260200160002060030160009054906101000a900460ff16600281111562000505576200050462000aff565b5b1462000548576040517f08c379a00000000000000000000000000000000000000000000000000000000081526004016200053f9062000e4c565b60405180910390fd5b60026001600083815260200190815260200160002060030160006101000a81548160ff0219169083600281111562000585576200058462000aff565b5b02179055507fa4035636e99f06b7651a604c1019fa4e8779fe68ef27eeb74dff2de348f6199b816001600084815260200190815260200160002060030160009054906101000a900460ff166002811115620005e557620005e462000aff565b5b6001600085815260200190815260200160002060000160009054906101000a900473ffffffffffffffffffffffffffffffffffffffff166040516200062d9392919062000e93565b60405180910390a150565b6200064262000325565b62000684576040517f08c379a00000000000000000000000000000000000000000000000000000000081526004016200067b9062000f85565b60405180910390fd5b60003082600254604051620006999062000846565b620006a79392919062000fe0565b604051809103906000f080158015620006c4573d6000803e3d6000fd5b5090508060016000600254815260200190815260200160002060000160006101000a81548173ffffffffffffffffffffffffffffffffffffffff021916908373ffffffffffffffffffffffffffffffffffffffff1602179055508260016000600254815260200190815260200160002060010190805190602001906200074c92919062000854565b508160016000600254815260200190815260200160002060020181905550600060016000600254815260200190815260200160002060030160006101000a81548160ff02191690836002811115620007a957620007a862000aff565b5b02179055507fa4035636e99f06b7651a604c1019fa4e8779fe68ef27eeb74dff2de348f6199b60025460016000600254815260200190815260200160002060030160009054906101000a900460ff1660028111156200080d576200080c62000aff565b5b836040516200081f9392919062000e93565b60405180910390a1600260008154809291906200083c906200104c565b9190505550505050565b61072e806200109b83390190565b828054620008629062000eff565b90600052602060002090601f016020900481019282620008865760008555620008d2565b82601f10620008a157805160ff1916838001178555620008d2565b82800160010185558215620008d2579182015b82811115620008d1578251825591602001919060010190620008b4565b5b509050620008e19190620008e5565b5090565b5b8082111562000900576000816000905550600101620008e6565b5090565b6000604051905090565b600080fd5b600080fd5b6000819050919050565b6200092d8162000918565b81146200093957600080fd5b50565b6000813590506200094d8162000922565b92915050565b6000602082840312156200096c576200096b6200090e565b5b60006200097c848285016200093c565b91505092915050565b60008115159050919050565b6200099c8162000985565b82525050565b6000602082019050620009b9600083018462000991565b92915050565b600073ffffffffffffffffffffffffffffffffffffffff82169050919050565b6000819050919050565b600062000a0a62000a04620009fe84620009bf565b620009df565b620009bf565b9050919050565b600062000a1e82620009e9565b9050919050565b600062000a328262000a11565b9050919050565b62000a448162000a25565b82525050565b600081519050919050565b600082825260208201905092915050565b60005b8381101562000a8657808201518184015260208101905062000a69565b8381111562000a96576000848401525b50505050565b6000601f19601f8301169050919050565b600062000aba8262000a4a565b62000ac6818562000a55565b935062000ad881856020860162000a66565b62000ae38162000a9c565b840191505092915050565b62000af98162000918565b82525050565b7f4e487b7100000000000000000000000000000000000000000000000000000000600052602160045260246000fd5b6003811062000b425762000b4162000aff565b5b50565b600081905062000b558262000b2e565b919050565b600062000b678262000b45565b9050919050565b62000b798162000b5a565b82525050565b600060808201905062000b96600083018762000a39565b818103602083015262000baa818662000aad565b905062000bbb604083018562000aee565b62000bca606083018462000b6e565b95945050505050565b600080fd5b600080fd5b7f4e487b7100000000000000000000000000000000000000000000000000000000600052604160045260246000fd5b62000c178262000a9c565b810181811067ffffffffffffffff8211171562000c395762000c3862000bdd565b5b80604052505050565b600062000c4e62000904565b905062000c5c828262000c0c565b919050565b600067ffffffffffffffff82111562000c7f5762000c7e62000bdd565b5b62000c8a8262000a9c565b9050602081019050919050565b82818337600083830152505050565b600062000cbd62000cb78462000c61565b62000c42565b90508281526020810184848401111562000cdc5762000cdb62000bd8565b5b62000ce984828562000c97565b509392505050565b600082601f83011262000d095762000d0862000bd3565b5b813562000d1b84826020860162000ca6565b91505092915050565b6000806040838503121562000d3e5762000d3d6200090e565b5b600083013567ffffffffffffffff81111562000d5f5762000d5e62000913565b5b62000d6d8582860162000cf1565b925050602062000d80858286016200093c565b9150509250929050565b7f4f6e6c792066756c6c207061796d656e74732061636365707465640000000000600082015250565b600062000dc2601b8362000a55565b915062000dcf8262000d8a565b602082019050919050565b6000602082019050818103600083015262000df58162000db3565b9050919050565b7f4974656d206973206675727468657220696e2074686520636861696e00000000600082015250565b600062000e34601c8362000a55565b915062000e418262000dfc565b602082019050919050565b6000602082019050818103600083015262000e678162000e25565b9050919050565b600062000e7b82620009bf565b9050919050565b62000e8d8162000e6e565b82525050565b600060608201905062000eaa600083018662000aee565b62000eb9602083018562000aee565b62000ec8604083018462000e82565b949350505050565b7f4e487b7100000000000000000000000000000000000000000000000000000000600052602260045260246000fd5b6000600282049050600182168062000f1857607f821691505b6020821081141562000f2f5762000f2e62000ed0565b5b50919050565b7f596f7520617265206e6f7420616c6c6f7765642e000000000000000000000000600082015250565b600062000f6d60148362000a55565b915062000f7a8262000f35565b602082019050919050565b6000602082019050818103600083015262000fa08162000f5e565b9050919050565b600062000fb482620009e9565b9050919050565b600062000fc88262000fa7565b9050919050565b62000fda8162000fbb565b82525050565b600060608201905062000ff7600083018662000fcf565b62001006602083018562000aee565b62001015604083018462000aee565b949350505050565b7f4e487b7100000000000000000000000000000000000000000000000000000000600052601160045260246000fd5b6000620010598262000918565b91507fffffffffffffffffffffffffffffffffffffffffffffffffffffffffffffffff8214156200108f576200108e6200101d565b5b60018201905091905056fe608060405234801561001057600080fd5b5060405161072e38038061072e83398181016040528101906100329190610114565b60005491506001549050600360009054906101000a900473ffffffffffffffffffffffffffffffffffffffff169250505050610167565b600080fd5b600073ffffffffffffffffffffffffffffffffffffffff82169050919050565b60006100998261006e565b9050919050565b60006100ab8261008e565b9050919050565b6100bb816100a0565b81146100c657600080fd5b50565b6000815190506100d8816100b2565b92915050565b6000819050919050565b6100f1816100de565b81146100fc57600080fd5b50565b60008151905061010e816100e8565b92915050565b60008060006060848603121561012d5761012c610069565b5b600061013b868287016100c9565b935050602061014c868287016100ff565b925050604061015d868287016100ff565b9150509250925092565b6105b8806101766000396000f3fe6080604052600436106100385760003560e01c80632986c0e51461025057806389794d001461027b578063ce3a181e146102a657610241565b3661024157600060025414610082576040517f08c379a000000000000000000000000000000000000000000000000000000000815260040161007990610340565b60405180910390fd5b34600054146100c6576040517f08c379a00000000000000000000000000000000000000000000000000000000081526004016100bd906103ac565b60405180910390fd5b34600260008282546100d89190610405565b925050819055506000600360009054906101000a900473ffffffffffffffffffffffffffffffffffffffff1673ffffffffffffffffffffffffffffffffffffffff163460015460405160240161012e919061046a565b6040516020818303038152906040527f800fb83f000000000000000000000000000000000000000000000000000000007bffffffffffffffffffffffffffffffffffffffffffffffffffffffff19166020820180517bffffffffffffffffffffffffffffffffffffffffffffffffffffffff83818316178352505050506040516101b891906104ff565b60006040518083038185875af1925050503d80600081146101f5576040519150601f19603f3d011682016040523d82523d6000602084013e6101fa565b606091505b505090508061023e576040517f08c379a000000000000000000000000000000000000000000000000000000000815260040161023590610562565b60405180910390fd5b50005b34801561024d57600080fd5b50005b34801561025c57600080fd5b506102656102d1565b604051610272919061046a565b60405180910390f35b34801561028757600080fd5b506102906102d7565b60405161029d919061046a565b60405180910390f35b3480156102b257600080fd5b506102bb6102dd565b6040516102c8919061046a565b60405180910390f35b60015481565b60025481565b60005481565b600082825260208201905092915050565b7f4974656d206973207061696420616c7265616479000000000000000000000000600082015250565b600061032a6014836102e3565b9150610335826102f4565b602082019050919050565b600060208201905081810360008301526103598161031d565b9050919050565b7f4f6d6c792066756c6c207061796d656e747320616c6c6f776564000000000000600082015250565b6000610396601a836102e3565b91506103a182610360565b602082019050919050565b600060208201905081810360008301526103c581610389565b9050919050565b6000819050919050565b7f4e487b7100000000000000000000000000000000000000000000000000000000600052601160045260246000fd5b6000610410826103cc565b915061041b836103cc565b9250827fffffffffffffffffffffffffffffffffffffffffffffffffffffffffffffffff038211156104505761044f6103d6565b5b828201905092915050565b610464816103cc565b82525050565b600060208201905061047f600083018461045b565b92915050565b600081519050919050565b600081905092915050565b60005b838110156104b957808201518184015260208101905061049e565b838111156104c8576000848401525b50505050565b60006104d982610485565b6104e38185610490565b93506104f381856020860161049b565b80840191505092915050565b600061050b82846104ce565b915081905092915050565b7f5472616e73616374696f6e206661696c65642c43616e63656c6c696e672e2e2e600082015250565b600061054c6020836102e3565b915061055782610516565b602082019050919050565b6000602082019050818103600083015261057b8161053f565b905091905056fea2646970667358221220fdb654b93dccaff0b3addb05f4058e8c8f33d6569845b199d5f0bb07e823b12a64736f6c634300080a0033a264697066735822122058de9b4a8b3691bd817d1bf35332792e94ee5290d0f67b6d5c927737b12903fd64736f6c634300080a0033",
  "immutableReferences": {},
  "source": "pragma solidity>=0.8.0;\r\nimport \"./Ownable.sol\";\r\nimport \"./Item.sol\";\r\n\r\ncontract ItemManager is Ownable{\r\n    \r\n    enum SupplyChainState{Created,Paid,Delivered}\r\n    \r\n    \r\n    struct S_items{\r\n        Item _item;\r\n        \r\n        string _Identifier;\r\n        uint _itemprice;\r\n        ItemManager.SupplyChainState state;\r\n        \r\n        \r\n    }\r\n    mapping(uint =>S_items) public items;\r\n    uint Itemindex;\r\n    \r\n    event SupplyChainStep(uint Itemindex, uint _step, address _itemAddress);\r\n    \r\n    \r\n    \r\n    function CreateItem(string memory _Identifier, uint _itemprice) public onlyOwner {\r\n        Item item = new Item(this, _itemprice,Itemindex);\r\n        items[Itemindex]._item= item;\r\n        items[Itemindex]._Identifier=_Identifier;\r\n        items[Itemindex]._itemprice =_itemprice;\r\n        items[Itemindex].state=SupplyChainState.Created;\r\n        emit SupplyChainStep(Itemindex,uint(items[Itemindex].state),address(item));\r\n        Itemindex++;\r\n    }\r\n    \r\n    \r\n    function triggerPayment(uint Itemindex) public payable{\r\n        \r\n        \r\n        \r\n        require(items[Itemindex]._itemprice==msg.value,\"Only full payments accepted\");\r\n        require(items[Itemindex].state==SupplyChainState.Created,\"Item is further in the chain\");\r\n        \r\n        items[Itemindex].state=SupplyChainState.Paid;\r\n        \r\n        emit SupplyChainStep(Itemindex,uint(items[Itemindex].state),address(items[Itemindex]._item));\r\n        \r\n    }\r\n    \r\n    function triggerDelivery(uint Itemindex) public onlyOwner{\r\n         \r\n        require(items[Itemindex].state==SupplyChainState.Paid,\"Item is further in the chain\");\r\n        items[Itemindex].state=SupplyChainState.Delivered;\r\n        \r\n        \r\n        emit SupplyChainStep(Itemindex,uint(items[Itemindex].state),address(items[Itemindex]._item));\r\n        \r\n        \r\n        \r\n    }\r\n    \r\n    \r\n    \r\n    \r\n    \r\n}",
  "sourcePath": "D:\\SupplyChain\\contracts\\ItemManager.sol",
  "compiler": {
    "name": "solc",
    "version": "0.8.10+commit.fc410830.Emscripten.clang"
  },
  "schemaVersion": "3.4.3",
  "updatedAt": "2021-11-18T15:39:55.307Z",
  "networkType": "ethereum",
  "devdoc": {
    "kind": "dev",
    "methods": {},
    "version": 1
  },
  "userdoc": {
    "kind": "user",
    "methods": {},
    "version": 1
  }
}