{
  "contractName": "Ownable",
  "abi": [
    {
      "inputs": [],
      "stateMutability": "nonpayable",
      "type": "constructor"
    },
    {
      "inputs": [],
      "name": "isOwner",
      "outputs": [
        {
          "internalType": "bool",
          "name": "",
          "type": "bool"
        }
      ],
      "stateMutability": "view",
      "type": "function"
    }
  ],
  "bytecode": "0x608060405234801561001057600080fd5b50336000806101000a81548173ffffffffffffffffffffffffffffffffffffffff021916908373ffffffffffffffffffffffffffffffffffffffff160217905550610106806100606000396000f3fe6080604052348015600f57600080fd5b506004361060285760003560e01c80638f32d59b14602d575b600080fd5b60336047565b604051603e919060b7565b60405180910390f35b60008060009054906101000a900473ffffffffffffffffffffffffffffffffffffffff1673ffffffffffffffffffffffffffffffffffffffff163373ffffffffffffffffffffffffffffffffffffffff1614905090565b60008115159050919050565b60b181609e565b82525050565b600060208201905060ca600083018460aa565b9291505056fea264697066735822122045d7f1bc27b7e98ea887b8643c26fc8f851f4cef8af7c634d5ec518d85d599c564736f6c634300080a0033",
  "immutableReferences": {},
  "source": "pragma solidity>=0.8.0;\r\n\r\n\r\ncontract Ownable{\r\n    address payable owner;\r\n    \r\n    constructor(){\r\n        owner= payable(msg.sender);\r\n        \r\n    }\r\n    \r\n    modifier onlyOwner(){\r\n        \r\n        require (isOwner(),\"You are not allowed.\");\r\n        _;\r\n        \r\n    }\r\n    \r\n    function isOwner() public  view returns (bool){\r\n        return msg.sender==owner;\r\n        \r\n    }\r\n    \r\n    \r\n}",
  "sourcePath": "D:\\SupplyChain\\contracts\\Ownable.sol",
  "compiler": {
    "name": "solc",
    "version": "0.8.10+commit.fc410830.Emscripten.clang"
  },
  "schemaVersion": "3.4.3",
  "updatedAt": "2021-11-18T15:39:46.199Z",
  "devdoc": {
    "kind": "dev",
    "methods": {},
    "version": 1
  },
  "userdoc": {
    "kind": "user",
    "methods": {},
    "version": 1
  }
}